:020000040800F2
:1000000000280020FD11000821100008271000081A
:100010002D100008331000083910000800000000FF
:100020000000000000000000000000003F10000879
:100030004B10000800000000571000086310000873
:100040004512000845120008451200084512000834
:100050004512000845120008451200084512000824
:100060004512000845120008451200084512000814
:100070004512000845120008451200084512000804
:1000800045120008451200084512000845120008F4
:1000900045120008451200084512000845120008E4
:1000A00045120008451200084512000845120008D4
:1000B0004512000845120008000000004512000823
:1000C0004512000800000000000000004512000872
:1000D0000000000045120008451200080000000062
:1000E00045120008451200084512000800000000F3
:1000F0000000000000000000000000000000000000
:0C01000000000000000000005FF808F1A3
:1001100010B5054C237833B9044B13B10448AFF341
:1001200000800123237010BDE001002000000000CA
:10013000CC65000808B5034B1BB103490348AFF376
:10014000008008BD00000000E4010020CC6500082C
:10015000034613F8012B002AFBD1181A0138704707
:1001600081F0004102E000BF83F0004330B54FEA68
:1001700041044FEA430594EA050F08BF90EA020FD5
:100180001FBF54EA000C55EA020C7FEA645C7FEA68
:10019000655C00F0E2804FEA5454D4EB5555B8BF8B
:1001A0006D420CDD2C4480EA020281EA030382EAFC
:1001B000000083EA010180EA020281EA0303362D8E
:1001C00088BF30BD11F0004F4FEA01314FF4801C61
:1001D0004CEA113102D0404261EB410113F0004F73
:1001E0004FEA03334CEA133302D0524263EB43032A
:1001F00094EA050F00F0A780A4F10104D5F1200EC8
:100200000DDB02FA0EFC22FA05F2801841F1000122
:1002100003FA0EF2801843FA05F359410EE0A5F1F6
:1002200020050EF1200E012A03FA0EFC28BF4CF027
:10023000020C43FA05F3C01851EBE37101F00045DD
:1002400007D54FF0000EDCF1000C7EEB00006EEBEA
:100250000101B1F5801F1BD3B1F5001F0CD3490874
:100260005FEA30004FEA3C0C04F101044FEA4452CB
:1002700012F5800F80F09A80BCF1004F08BF5FEA52
:10028000500C50F1000041EB045141EA050130BD32
:100290005FEA4C0C404141EB0101013C28BFB1F544
:1002A000801FE9D291F0000F04BF01460020B1FA8F
:1002B00081F308BF2033A3F10B03B3F120020CDA62
:1002C0000C3208DD02F1140CC2F10C0201FA0CF040
:1002D00021FA02F10CE002F11402D8BFC2F1200CA5
:1002E00001FA02F120FA0CFCDCBF41EA0C0190405B
:1002F000E41AA2BF01EB0451294330BD6FEA0404A4
:100300001F3C1CDA0C340EDC04F11404C4F120028E
:1003100020FA04F001FA02F340EA030021FA04F3A0
:1003200045EA030130BDC4F10C04C4F1200220FAF7
:1003300002F001FA04F340EA0300294630BD21FA35
:1003400004F0294630BD94F0000F83F4801306BFFB
:1003500081F480110134013D4EE77FEA645C18BFEF
:100360007FEA655C29D094EA050F08BF90EA020F86
:1003700005D054EA000C04BF1946104630BD91EA7E
:10038000030F1EBF0021002030BD5FEA545C05D181
:100390004000494128BF41F0004130BD14F58004C0
:1003A0003CBF01F5801130BD01F0004545F0FE4134
:1003B00041F470014FF0000030BD7FEA645C1ABF69
:1003C000194610467FEA655C1CBF0B46024650EAA0
:1003D000013406BF52EA033591EA030F41F40021CC
:1003E00030BD00BF90F0000F04BF0021704730B552
:1003F0004FF4806404F132044FF000054FF0000127
:1004000050E700BF90F0000F04BF0021704730B5E7
:100410004FF4806404F1320410F0004548BF4042BC
:100420004FF000013EE700BF42004FEAE2014FEA11
:1004300031014FEA02701FBF12F07F4393F07F4FEC
:1004400081F06051704732F07F4208BF704793F0EF
:100450007F4F04BF41F40021704730B54FF4607402
:1004600001F0004521F000411CE700BF50EA010205
:1004700008BF704730B54FF000050AE050EA0102AE
:1004800008BF704730B511F0004502D5404261EB1E
:1004900041014FF4806404F132045FEA915C3FF45F
:1004A000D8AE4FF003025FEADC0C18BF03325FEAFC
:1004B000DC0C18BF033202EBDC02C2F1200300FAAD
:1004C00003FC20FA02F001FA03FE40EA0E0021FAD2
:1004D00002F11444BDE600BF70B54FF0FF0C4CF4C0
:1004E000E06C1CEA11541DBF1CEA135594EA0C0F72
:1004F00095EA0C0F00F0DEF82C4481EA030621EAAD
:100500004C5123EA4C5350EA013518BF52EA0335E7
:1005100041F4801143F4801338D0A0FB02CE4FF099
:100520000005E1FB02E506F00042E0FB03E54FF0C9
:100530000006E1FB03569CF0000F18BF4EF0010EC1
:10054000A4F1FF04B6F5007F64F5407404D25FEABD
:100550004E0E6D4146EB060642EAC62141EA555170
:100560004FEAC52040EA5E504FEACE2EB4F1FD0CB2
:1005700088BFBCF5E06F1ED8BEF1004F08BF5FEA30
:10058000500E50F1000041EB045170BD06F00046E2
:1005900046EA010140EA020081EA0301B4EB5C048F
:1005A000C2BFD4EB0C0541EA045170BD41F4801187
:1005B0004FF0000E013C00F3AB8014F1360FDEBFAC
:1005C000002001F0004170BDC4F10004203C35DA88
:1005D0000C341BDC04F11404C4F1200500FA05F30B
:1005E00020FA04F001FA05F240EA020001F00042AC
:1005F00021F0004110EBD37021FA04F642EB060122
:100600005EEA430E08BF20EAD37070BDC4F10C044B
:10061000C4F1200500FA04F320FA05F001FA04F20F
:1006200040EA020001F0004110EBD37041F10001FB
:100630005EEA430E08BF20EAD37070BDC4F1200506
:1006400000FA05F24EEA020E20FA04F301FA05F26E
:1006500043EA020321FA04F001F0004121FA04F216
:1006600020EA020000EBD3705EEA430E08BF20EAE6
:10067000D37070BD94F0000F0FD101F00046400020
:1006800041EB010111F4801F08BF013CF7D041EAA2
:10069000060195F0000F18BF704703F000465200A6
:1006A00043EB030313F4801F08BF013DF7D043EA77
:1006B0000603704794EA0C0F0CEA135518BF95EA2D
:1006C0000C0F0CD050EA410618BF52EA4306D1D1B4
:1006D00081EA030101F000414FF0000070BD50EAD3
:1006E000410606BF1046194652EA430619D094EA5D
:1006F0000C0F02D150EA013613D195EA0C0F05D147
:1007000052EA03361CBF104619460AD181EA03019A
:1007100001F0004141F0FE4141F470014FF0000052
:1007200070BD41F0FE4141F4780170BD70B54FF0ED
:10073000FF0C4CF4E06C1CEA11541DBF1CEA13556D
:1007400094EA0C0F95EA0C0F00F0A7F8A4EB05044F
:1007500081EA030E52EA03354FEA013100F0888046
:100760004FEA03334FF0805545EA131343EA12630F
:100770004FEA022245EA111545EA10654FEA0026C4
:100780000EF000419D4208BF964244F1FD0404F57D
:10079000407402D25B084FEA3202B61A65EB0305D9
:1007A0005B084FEA32024FF480104FF4002CB6EB96
:1007B000020E75EB030E22BFB61A754640EA0C0016
:1007C0005B084FEA3202B6EB020E75EB030E22BF56
:1007D000B61A754640EA5C005B084FEA3202B6EB97
:1007E000020E75EB030E22BFB61A754640EA9C0056
:1007F0005B084FEA3202B6EB020E75EB030E22BF26
:10080000B61A754640EADC0055EA060E18D04FEAE3
:10081000051545EA16754FEA06164FEAC30343EA83
:1008200052734FEAC2025FEA1C1CC0D111F4801F50
:100830000BD141EA00014FF000004FF0004CB6E749
:1008400011F4801F04BF01430020B4F1FD0C88BFE8
:10085000BCF5E06F3FF6AFAEB5EB030C04BFB6EBF3
:10086000020C5FEA500C50F1000041EB045170BDE6
:100870000EF0004E4EEA113114EB5C04C2BFD4EB13
:100880000C0541EA045170BD41F480114FF0000E97
:10089000013C90E645EA060E8DE60CEA135594EA13
:1008A0000C0F08BF95EA0C0F3FF43BAF94EA0C0F16
:1008B0000AD150EA01347FF434AF95EA0C0F7FF48B
:1008C00025AF104619462CE795EA0C0F06D152EADF
:1008D00003353FF4FDAE1046194622E750EA4106C3
:1008E00018BF52EA43067FF4C5AE50EA41047FF4D4
:1008F0000DAF52EA43057FF4EBAE12E74FF0FF3C39
:1009000006E000BF4FF0010C02E000BF4FF0010C09
:100910004DF804CD4FEA410C7FEA6C5C4FEA430C82
:1009200018BF7FEA6C5C1BD001B050EA410C0CBFD1
:1009300052EA430C91EA030F02BF90EA020F002033
:10094000704710F1000F91EA030F58BF994208BF9A
:1009500090422CBFD8176FEAE37040F00100704757
:100960004FEA410C7FEA6C5C02D150EA013C07D1AE
:100970004FEA430C7FEA6C5CD6D152EA033CD3D0F9
:100980005DF8040B704700BF8446104662468C46F3
:100990001946634600E000BF01B5FFF7B7FF002826
:1009A00048BF10F1000F01BD4DF808EDFFF7F4FF4F
:1009B0000CBF012000205DF808FB00BF4DF808EDDA
:1009C000FFF7EAFF34BF012000205DF808FB00BFFD
:1009D0004DF808EDFFF7E0FF94BF012000205DF81F
:1009E00008FB00BF4DF808EDFFF7CEFF94BF0120D4
:1009F00000205DF808FB00BF4DF808EDFFF7C4FFCD
:100A000034BF012000205DF808FB00BF4FEA410C15
:100A10007FEA6C5C02D150EA013C0AD14FEA430CF8
:100A20007FEA6C5C02D152EA033C02D14FF0000035
:100A300070474FF0010070474FEA410212F5001273
:100A400015D211D56FF47873B3EB625212D94FEA15
:100A5000C12343F0004343EA505311F0004F23FAFF
:100A600002F018BF404270474FF00000704750EA54
:100A7000013005D111F0004008BF6FF00040704711
:100A80004FF00000704700BF4A0011D212F500126B
:100A900011D20DD56FF47873B3EB62520ED44FEAD6
:100AA000C12343F0004343EA505323FA02F0704756
:100AB0004FF00000704750EA013002D14FF0FF3094
:100AC00070474FF0000070474FEA4102B2F1E04337
:100AD00024BFB3F5001CDCF1FE5C0DD901F0004C25
:100AE0004FEAC0024CEA5070B2F1004F40EB830075
:100AF00008BF20F00100704711F0804F21D113F1A1
:100B00003872BCBF01F00040704741F480114FEAD9
:100B10005252C2F11802C2F1200C10FA0CF320FA62
:100B200002F018BF40F001004FEAC1234FEAD3237F
:100B300003FA0CFC40EA0C0023FA02F34FEA4303E9
:100B4000CCE77FEA625307D150EA01331EBF4FF072
:100B5000FE4040F44000704701F0004040F0FE408D
:100B600040F40000704700BF38B505460C4600222F
:100B7000002328462146FFF721FF28B928462146B1
:100B8000BDE8384000F00AB8284604F1004100F002
:100B900005F8404261EB410138BD00BFD0B50022ED
:100BA0000B4B06460F46FFF797FCFFF76DFF044619
:100BB000FFF718FC0022074BFFF78EFC02460B469E
:100BC00030463946FFF7D0FAFFF75EFF2146D0BD29
:100BD0000000F03D0000F04180B500AF1E2000F0A5
:100BE00095FB00224FF400511C4800F096FC0122B6
:100BF0004FF48051194800F090FC00224FF400613E
:100C0000164800F08AFC00224FF48061134800F07F
:100C100084FC00224FF40041104800F07EFC0122C9
:100C20004FF480410D4800F078FC00224FF48041E1
:100C30000A4800F072FC2821002000F011F80C2175
:100C4000002000F00DF80621002000F009F8012135
:100C5000002000F005F800BF80BD00BF000C01407F
:100C600080B582B000AF03460A46FB711346BB71E4
:100C7000022000F04BFBFB79002B06D001224FF441
:100C800000415A4800F049FC05E000224FF40041C1
:100C9000564800F042FC97F90630002B06DA012294
:100CA0004FF48061514800F038FC05E000224FF419
:100CB00080614E4800F031FCBB7903F04003002B0B
:100CC00006D001224FF40061484800F026FC05E000
:100CD00000224FF40061454800F01FFCBB7903F08F
:100CE0002003002B06D001224FF480513F4800F032
:100CF00014FC05E000224FF480513C4800F00DFC4C
:100D0000BB7903F01003002B06D001224FF40051F1
:100D1000364800F002FC05E000224FF40051334851
:100D200000F0FBFB01224FF48041304800F0F5FB5E
:100D300000224FF480412D4800F0EFFBBB7903F017
:100D40000803002B06D001224FF48061274800F0F1
:100D5000E4FB05E000224FF48061244800F0DDFB55
:100D6000BB7903F00403002B06D001224FF400618D
:100D70001E4800F0D2FB05E000224FF400611B4842
:100D800000F0CBFBBB7903F00203002B06D001225D
:100D90004FF48051154800F0C0FB05E000224FF4ED
:100DA0008051124800F0B9FBBB7903F00103002B1E
:100DB00006D001224FF400510C4800F0AEFB05E0D4
:100DC00000224FF40051094800F0A7FB01224FF424
:100DD0008041064800F0A1FB00224FF48041034807
:100DE00000F09BFB00BF0837BD4680BD000C0140F2
:100DF00080B582B000AF03463A60FB710B46BB7111
:100E0000FB79032B36D801A252F823F01D0E0008FF
:100E10002D0E00083D0E00084D0E0008BB79803BEA
:100E2000DBB219460020FFF71BFF17E0BB79403B00
:100E3000DBB219460020FFF713FF0FE0BB79703BD0
:100E4000DBB219460020FFF70BFF07E0BB79303B10
:100E5000DBB219460020FFF703FF00BF0AE03B6842
:100E600093F90030DBB219460120FFF7F9FE3B6829
:100E700001333B603B6893F90030002BEFD100BF9A
:100E800000BF0837BD4680BD80B500AF01210020FE
:100E9000FFF7E6FE00BF80BD80B58EB000AF40F228
:100EA0003A237B637B6B264A82FB03121A4492101F
:100EB000DB17D31A1846FFF7A5FA02460B46C7E917
:100EC0000A2300F0C1F900F043F8FFF785FE3B1D4F
:100ED0007A6B1C49184601F0BBFD78623B1D1A462F
:100EE00000210020FFF784FF7B6A3A1DD018D7E964
:100EF0000A23154901F0ACFD02467B6A13447B626C
:100F00003B1D1A4600210120FFF772FF41F2883095
:100F100000F0FCF9FFF7B8FF01220E210B4800F0AA
:100F2000FCFA4FF47A7000F0F1F900220E21074824
:100F300000F0F3FA4FF47A7000F0E8F9ECE700BF44
:100F400093244992E8650008EC6500080008014018
:100F500080B590B000AF07F1180328220021184691
:100F600000F0FCFE3B1D00221A605A609A60DA60B5
:100F70001A610223BB610123BB621023FB620223BF
:100F80007B630023BB634FF43013FB6307F118034B
:100F9000184600F0DBFA0346002B01D000F018F8E9
:100FA0000F237B600223BB608023FB6000233B6137
:100FB00000237B613B1D0221184600F049FD0346DA
:100FC000002B01D000F004F800BF4037BD4680BDC3
:100FD00080B400AF72B600BFFEE7000080B483B0FB
:100FE00000AF0E4B9B690D4A43F0010393610B4B1D
:100FF0009B6903F001037B607B68084BDB69074A50
:1010000043F08053D361054BDB6903F080533B60B1
:101010003B6800BF0C37BD4680BC704700100240E3
:1010200080B400AFFEE780B400AFFEE780B400AF4D
:10103000FEE780B400AFFEE780B400AFFEE780B407
:1010400000AF00BFBD4680BC704780B400AF00BF9A
:10105000BD4680BC704780B400AF00BFBD4680BCB9
:10106000704780B500AF00F035F900BF80BD80B497
:1010700000AF01231846BD4680BC704780B582B0E2
:1010800000AF7860396000F03FFE034616221A6018
:101090004FF0FF3318460837BD4680BD80B582B09B
:1010A00000AF78604FF0FF317868FFF7E7FFFEE7A9
:1010B00080B586B000AFF860B9607A6000237B61CC
:1010C0000AE0AFF300800146BB685A1CBA60CAB29E
:1010D0001A707B6901337B617A697B689A42F0DB25
:1010E0007B6818461837BD4680BD80B586B000AF16
:1010F000F860B9607A6000237B6109E0BB685A1C24
:10110000BA601B781846AFF300807B6901337B61BE
:101110007A697B689A42F1DB7B6818461837BD46CE
:1011200080BD80B483B000AF78604FF0FF331846C5
:101130000C37BD4680BC704780B483B000AF786088
:1011400039603B684FF400525A60002318460C3750
:10115000BD4680BC704780B483B000AF7860012387
:1011600018460C37BD4680BC704780B485B000AFD0
:10117000F860B9607A60002318461437BD4680BC19
:101180007047000080B586B000AF7860144A154BF8
:10119000D31A7B617B693B61134B1B68002B02D127
:1011A000114B124A1A60104B1A687B6813443A6953
:1011B0009A4207D200F0A8FD03460C221A604FF0B5
:1011C000FF3309E0084B1B68FB60074B1A687B681C
:1011D0001344054A1360FB6818461837BD4680BDA6
:1011E0000028002000040000FC010020180200205C
:1011F00080B400AF00BFBD4680BC7047FFF7F8FF6A
:101200000B480C490C4A002302E0D458C450043364
:10121000C4188C42F9D3094A094C002301E0136039
:101220000432A242FBD300F075FDFFF735FE704794
:1012300000000020E0010020C46A0008E001002056
:1012400014020020FEE7000080B500AF084B1B68C9
:10125000074A43F010031360032000F02BF90F201E
:1012600000F008F8FFF7BAFE0023184680BD00BF63
:101270000020024080B582B000AF7860124B1A683F
:10128000124B1B7819464FF47A73B3FBF1F3B2FBA0
:10129000F3F3184600F035F90346002B01D0012383
:1012A0000EE07B680F2B0AD8002279684FF0FF30E0
:1012B00000F00BF9064A7B681360002300E001236D
:1012C00018460837BD4680BD0000002008000020F9
:1012D0000400002080B400AF054B1B781A46054B74
:1012E0001B681344034A136000BFBD4680BC7047AF
:1012F000080000200002002080B400AF024B1B68F1
:101300001846BD4680BC70470002002080B584B0FE
:1013100000AF7860FFF7F0FFB8607B68FB60FB68A8
:10132000B3F1FF3F05D00A4B1B781A46FB68134404
:10133000FB6000BFFFF7E0FF0246BB68D31AFA6804
:101340009A42F7D800BF00BF1037BD4680BD00BF2E
:101350000800002080B485B000AF78607B6803F09F
:101360000703FB600C4BDB68BB60BA684FF6FF03FA
:101370001340BB60FB681A02BB68134343F0BF63B2
:1013800043F40033BB60044ABB68D36000BF14372A
:10139000BD4680BC704700BF00ED00E080B400AFE8
:1013A000044BDB681B0A03F007031846BD4680BCEC
:1013B000704700BF00ED00E080B483B000AF03468B
:1013C0003960FB7197F90730002B0ADB3B68DAB212
:1013D0000C4997F907301201D2B20B4483F800236D
:1013E0000AE03B68DAB20849FB7903F00F03043BDB
:1013F0001201D2B20B441A7600BF0C37BD4680BC36
:10140000704700BF00E100E000ED00E080B489B06B
:1014100000AFF860B9607A60FB6803F00703FB6116
:10142000FB69C3F10703042B28BF0423BB61FB69DD
:101430000433062B02D9FB69033B00E000237B61E8
:101440004FF0FF32BB6902FA03F3DA43BB681A407C
:101450007B699A404FF0FF317B6901FA03F3D9436E
:101460007B680B40134318462437BD4680BC704749
:1014700080B582B000AF78607B68013BB3F1807FBC
:1014800001D301230FE00A4A7B68013B53600F211F
:101490004FF0FF30FFF790FF054B00229A60044B9E
:1014A00007221A60002318460837BD4680BD00BFDA
:1014B00010E000E080B582B000AF78607868FFF798
:1014C00049FF00BF0837BD4680BD80B586B000AF7C
:1014D0000346B9607A60FB7300237B61FFF75EFF10
:1014E00078617A68B9687869FFF790FF024697F9E2
:1014F0000F3011461846FFF75FFF00BF1837BD4693
:1015000080BD80B582B000AF78607868FFF7B0FF2B
:10151000034618460837BD4680BD80B483B000AF8F
:1015200078600B467B8013467B707B78002B03D062
:101530007A887B681A6103E07B881A047B681A61E9
:1015400000BF0C37BD4680BC7047000080B586B038
:1015500000AF78607B68002B01D1012372E27B68C9
:101560001B6803F00103002B00F08780924B5B683F
:1015700003F00C03042B0CD08F4B5B6803F00C03BF
:10158000082B12D18C4B5B6803F48033B3F5803F9A
:101590000BD1894B1B6803F40033002B6CD07B68A4
:1015A0005B68002B68D101234CE27B685B68B3F574
:1015B000803F06D1804B1B687F4A43F48033136021
:1015C0002EE07B685B68002B0CD17B4B1B687A4A52
:1015D00023F480331360784B1B68774A23F480230D
:1015E00013601DE07B685B68B3F5A02F0CD1724BD4
:1015F0001B68714A43F4802313606F4B1B686E4A6B
:1016000043F4803313600BE06B4B1B686A4A23F48E
:1016100080331360684B1B68674A23F48023136090
:101620007B685B68002B13D0FFF766FE386108E02B
:10163000FFF762FE02463B69D31A642B01D90323EC
:1016400000E25D4B1B6803F40033002BF0D014E084
:10165000FFF752FE386108E0FFF74EFE02463B6995
:10166000D31A642B01D90323ECE1534B1B6803F419
:101670000033002BF0D100E000BF7B681B6803F053
:101680000203002B63D04C4B5B6803F00C03002B70
:101690000BD0494B5B6803F00C03082B1CD1464B65
:1016A0005B6803F48033002B16D1434B1B6803F0B7
:1016B0000203002B05D07B681B69012B01D001239D
:1016C000C0E13D4B1B6823F0F8027B685B69DB00DF
:1016D000394913430B603AE07B681B69002B20D02B
:1016E000364B01221A60FFF707FE386108E0FFF76A
:1016F00003FE02463B69D31A022B01D90323A1E161
:101700002D4B1B6803F00203002BF0D02A4B1B6803
:1017100023F0F8027B685B69DB00274913430B6009
:1017200015E0264B00221A60FFF7E6FD386108E05D
:10173000FFF7E2FD02463B69D31A022B01D90323CE
:1017400080E11D4B1B6803F00203002BF0D17B6886
:101750001B6803F00803002B3AD07B689B69002BC1
:1017600019D0174B01221A60FFF7C6FD386108E057
:10177000FFF7C2FD02463B69D31A022B01D90323AE
:1017800060E10D4B5B6A03F00203002BF0D00120F7
:1017900000F09CFA1CE00A4B00221A60FFF7ACFD37
:1017A00038610FE0FFF7A8FD02463B69D31A022B10
:1017B00008D9032346E100BF001002400000424266
:1017C00080044242924B5B6A03F00203002BE9D192
:1017D0007B681B6803F00403002B00F0A680002345
:1017E000FB758B4BDB6903F08053002B0DD1884BCD
:1017F000DB69874A43F08053D361854BDB6903F093
:101800008053BB60BB680123FB75824B1B6803F4EC
:101810008073002B18D17F4B1B687E4A43F4807382
:101820001360FFF769FD386108E0FFF765FD0246C8
:101830003B69D31A642B01D9032303E1754B1B6861
:1018400003F48073002BF0D07B68DB68012B06D19A
:101850006F4B1B6A6E4A43F0010313622DE07B68F5
:10186000DB68002B0CD16A4B1B6A694A23F0010329
:101870001362674B1B6A664A23F0040313621CE081
:101880007B68DB68052B0CD1614B1B6A604A43F017
:10189000040313625E4B1B6A5D4A43F0010313624B
:1018A0000BE05B4B1B6A5A4A23F001031362584B4F
:1018B0001B6A574A23F0040313627B68DB68002B22
:1018C00015D0FFF719FD38610AE0FFF715FD024654
:1018D0003B69D31A41F28832934201D90323B1E024
:1018E0004B4B1B6A03F00203002BEED014E0FFF712
:1018F00003FD38610AE0FFF7FFFC02463B69D31A9B
:1019000041F28832934201D903239BE0404B1B6A8A
:1019100003F00203002BEED1FB7D012B05D13C4BE4
:10192000DB693B4A23F08053D3617B68DB69002B82
:1019300000F08780364B5B6803F00C03082B61D006
:101940007B68DB69022B46D1334B00221A60FFF71C
:10195000D3FC386108E0FFF7CFFC02463B69D31A9D
:10196000022B01D903236DE0294B1B6803F00073A0
:10197000002BF0D17B681B6AB3F5803F08D1244B64
:101980005B6823F400327B689B68214913434B60FA
:101990001F4B5B6823F474127B68196A7B685B6A6F
:1019A0000B431B4913434B601B4B01221A60FFF78B
:1019B000A3FC386108E0FFF79FFC02463B69D31A9D
:1019C000022B01D903233DE0114B1B6803F0007388
:1019D000002BF0D035E0104B00221A60FFF78CFC92
:1019E000386108E0FFF788FC02463B69D31A022BF6
:1019F00001D9032326E0064B1B6803F00073002B7C
:101A0000F0D11EE07B68DB69012B07D1012319E0CF
:101A10000010024000700040600042420B4B5B68C7
:101A2000FB60FB6803F480327B681B6A9A4206D134
:101A3000FB6803F470127B685B6A9A4201D0012351
:101A400000E0002318461837BD4680BD0010024054
:101A500080B584B000AF786039607B68002B01D11D
:101A60000123D0E06A4B1B6803F007033A689A42EF
:101A700010D9674B1B6823F0070265493B68134385
:101A80000B60634B1B6803F007033A689A4201D06E
:101A90000123B8E07B681B6803F00203002B20D011
:101AA0007B681B6803F00403002B05D0594B5B686F
:101AB000584A43F4E06353607B681B6803F00803F3
:101AC000002B05D0534B5B68524A43F4605353607C
:101AD000504B5B6823F0F0027B689B684D491343D1
:101AE0004B607B681B6803F00103002B40D07B68D0
:101AF0005B68012B07D1474B1B6803F40033002BB5
:101B000015D101237FE07B685B68022B07D1414B35
:101B10001B6803F00073002B09D1012373E03D4BD8
:101B20001B6803F00203002B01D101236BE0394B4A
:101B30005B6823F003027B685B68364913434B60A4
:101B4000FFF7DAFBF8600AE0FFF7D6FB0246FB6816
:101B5000D31A41F28832934201D9032353E02D4B2B
:101B60005B6803F00C027B685B689B009A42EBD1D8
:101B7000274B1B6803F007033A689A4210D2244BA4
:101B80001B6823F0070222493B6813430B60204B7C
:101B90001B6803F007033A689A4201D0012332E040
:101BA0007B681B6803F00403002B08D0194B5B68AB
:101BB00023F4E0627B68DB68164913434B607B6863
:101BC0001B6803F00803002B09D0124B5B6823F459
:101BD00060527B681B69DB000E4913434B6000F0C9
:101BE00021F802460B4B5B681B0903F00F030A49FF
:101BF000CB5C22FA03F3094A1360094B1B681846B1
:101C0000FFF738FB002318461037BD4680BD00BFE4
:101C10000020024000100240F06500080000002093
:101C20000400002080B487B000AF0023FB600023D5
:101C3000BB6000237B6100237B6000233B611E4B64
:101C40005B68FB60FB6803F00C03042B02D0082BDD
:101C500003D027E0194B3B6127E0FB689B0C03F0A6
:101C60000F03174AD35C7B60FB6803F48033002BBF
:101C700010D0114B5B685B0C03F00103114AD35C7D
:101C8000BB607B680D4A03FB02F2BB68B2FBF3F357
:101C90007B6104E07B680C4A02FB03F37B617B6998
:101CA0003B6102E0054B3B6100BF3B6918461C37B6
:101CB000BD4680BC704700BF0010024000127A0091
:101CC000006600081066000800093D0080B485B079
:101CD00000AF78600A4B1B680A4AA2FB03235B0A29
:101CE0007A6802FB03F3FB6000BFFB685A1EFA60D0
:101CF000002BF9D100BF00BF1437BD4680BC704730
:101D000000000020D34D6210014B1868704700BFDF
:101D10000C00002070B500260C4D0D4C641BA41067
:101D2000A64209D104F052FC00260A4D0A4C641B5D
:101D3000A410A64205D170BD55F8043B9847013662
:101D4000EEE755F8043B98470136F2E7BC6A000815
:101D5000BC6A0008BC6A0008C06A00080346024466
:101D6000934200D1704703F8011BF9E7002B2DE9DE
:101D7000F0471F46BBBF03F100431F4600232D233E
:101D800088B01446129A109D1370149BDDF84CA075
:101D900023F02008B8F1460F05D0B8F1450F00D167
:101DA0000135022300E0032307AA049206AACDE925
:101DB00002A2CDE9003522463B4601F085FDB8F18F
:101DC000470F064602D1119BDB0722D5B8F1460F1B
:101DD00006EB050910D13378302B0AD100220023FD
:101DE00020463946FEF7E0FD18B9C5F10105CAF8ED
:101DF0000050DAF80030994400220023204639468A
:101E0000FEF7D2FD08B1CDF81C903022079B4B4560
:101E100007D33046079B159A9B1B136008B0BDE89B
:101E2000F087591C07911A70F0E70346F7B50029AF
:101E300003F8022BB6BF2D222B22494209294270FA
:101E40002BDD0DF10704A4460A2791FBF7F60A469D
:101E5000A64607FB1615632A05F13005314604F145
:101E6000FF340EF8015CF0DC3031AEF1020504F80D
:101E7000011C2946441C61450AD30DF10902A2EB5D
:101E80000E02654588BF00221344181A03B0F0BD46
:101E900011F8012B04F8012FEDE730233031837066
:101EA000C170031DF1E700002DE9F04F91B00C4621
:101EB000DDF8688016461F46054602F059FE0368A5
:101EC00018460993FEF744F900230E93D8F8003022
:101ED0000A90073323F0070303F1080294F81890DF
:101EE000D4F800B0C8F80020D3E90023C4E91223D5
:101EF000D4E9128A2AF000430B934FF0FF32404698
:101F00009C4B0B99FEF782FD70BB4FF0FF324046B1
:101F1000984B0B99FEF75CFD30BB00220023404636
:101F20005146FEF74BFD10B12D2384F84330924B00
:101F30009248B9F1470F94BF9846804603234FF06B
:101F4000000A23612BF00403236033462146284610
:101F500000970FAA00F0D4F9013040F090804FF0C4
:101F6000FF3011B0BDE8F08F42465346404651461F
:101F7000FEF74CFD48B1BAF1000FB8BF2D238048E1
:101F8000B8BF84F843307F4BD3E7636809F0DF01C3
:101F90005A1C42D106236360002206920EAACDE9A4
:101FA00004920DAA4BF4806303920DF13302CDE944
:101FB00001322360636842460093284653460B91E2
:101FC000FFF7D4FE0B99804647290D9908D1C81C0C
:101FD00002DB6368994240DDA9F102095FFA89F9E1
:101FE000B9F1650F1FD84A46013904F150000D912F
:101FF000FFF71BFF0E9A82461318012A236102DCA9
:102000002268D20701D5013323619DF83330002BBC
:102010009BD02D2384F8433097E74729BCD1002B70
:10202000BAD10123B7E7B9F1660F18D10029636867
:102030000BDD216113B92268D00702D501330B44AF
:1020400023614FF0000AA165DFE713B92268D207C8
:1020500001D50233F4E70123F2E74FF067090E9B45
:10206000994205DB23682161D807EAD54B1CE7E7D5
:102070000029CCBF0122C1F102021344E0E723682A
:102080005A0507D42369424631462846B8470130ED
:102090002BD164E7B9F1650F40F2DD80D4E912017C
:1020A00000220023FEF780FC002833D001233146B4
:1020B0002846354AB84701303FF451AFDDE90D23DA
:1020C0009A4202DB2368D8070FD5DDE909233146A0
:1020D0002846B84701303FF442AF4FF0000804F102
:1020E0001A090E9B013B434509DC23689B0700F15D
:1020F0000281E0680F9B9842B8BF184631E7012380
:102100004A4631462846B84701303FF428AF08F127
:102110000108E6E70D9B002B38DC012331462846F9
:10212000194AB84701303FF41AAFDDE90D231343D4
:1021300002D12368D907D8D5DDE9092331462846DD
:10214000B84701303FF40BAF4FF0000904F11A0A11
:102150000D9B5B424B4501DC0E9B94E701235246ED
:1021600031462846B84701303FF4F9AE09F101097C
:10217000EEE700BFFFFFEF7F186600081C6600084F
:102180002466000820660008286600080E9AA36DE1
:102190009A42A8BF1A46002A914637DC4FF0000B3E
:1021A00029EAE97904F11A02D4F858A0AAEB090344
:1021B0005B4533DCDDE90D239A423BDB2368DA071C
:1021C00038D40E9B0D99A3EB0A02A3EB01099145AC
:1021D000A8BF9146B9F1000F34DC4FF0000829EA9E
:1021E000E97904F11A0ADDE90D239B1AA3EB09032F
:1021F00043457FF77AAF0123524631462846B84718
:1022000001303FF4ACAE08F10108ECE7134631466B
:1022100042462846B8470130C0D1A0E601233146E6
:1022200028460B92B84701303FF499AE0B9A0BF158
:10223000010BB9E73146DDE909232846B8470130EB
:10224000BFD18CE64B463146284608EB0A02B84718
:102250000130C2D183E60E9A012A01DCDB0737D5B3
:102260000123424631462846B84701303FF477AE55
:10227000DDE9092331462846B84701303FF46FAE07
:10228000D4E9120100220023FEF78EFBD8B90E9B81
:1022900008F10102013B31462846B84701300ED112
:1022A0005DE601234A4631462846B84701303FF4EF
:1022B00056AE08F101080E9B013B4345F1DC534645
:1022C00004F15002E0E64FF0000804F11A09F2E7C9
:1022D00001234246DFE701234A4631462846B847F4
:1022E00001303FF43CAE08F10108E3680F995B1A36
:1022F0004345F0DCFDE64FF0000804F11909F4E76E
:102300002DE9F047164699468A680B6907469342BD
:10231000B8BF1346336091F843200C46DDF82080A7
:102320000AB1013333602368990642BF3368023330
:102330003360256815F0060506D104F1190AE36833
:1023400032689B1AAB4228DC94F84320131E2268A3
:1023500018BF012392062DD44946384604F14302A2
:10236000C047013020D02368E56803F00603042B42
:1023700018BF002532684FF00006A36808BFAD1AE9
:10238000226908BF25EAE5759342C4BF9B1AED1880
:102390001A34B5421AD1002008E0012352464946BA
:1023A0003846C047013003D14FF0FF30BDE8F08719
:1023B0000135C4E73020E11881F843005A1C94F835
:1023C00045102244023382F84310C5E70123224618
:1023D00049463846C0470130E6D00136D9E700000B
:1023E0002DE9FF470F7E9146782F80460C469A468E
:1023F0000C9D01F1430207D8622F0AD8002F00F08C
:10240000D980582F00F0A48004F1420584F842706E
:102410003AE0A7F16303152BF6D801A151F823F098
:10242000792400088D2400080924000809240008E4
:1024300009240008092400088D2400080924000844
:102440000924000809240008092400089B25000825
:10245000BD2400087D25000809240008092400087F
:10246000BD25000809240008BD240008092400082F
:1024700009240008852500082B681A1D1B682A609E
:1024800004F1420584F842300123A4E02068296861
:10249000060601F104030AD50E682B60002E03DA4C
:1024A0002D23764284F843300A235E4819E00E68F3
:1024B00010F0400F2B6018BF36B2EFE72B68206892
:1024C000191D2960010601D51E6802E04606FBD5EC
:1024D0001E886F2F0CBF08230A235248002184F85E
:1024E00043106568002DA8BF2168A560A4BF21F036
:1024F000040121600EB9002D4DD01546B6FBF3F155
:1025000003FB1167C75D05F8017D3746BB420E46E8
:10251000F4D9082B0BD12368DE0708D5236961683D
:102520009942DEBF302305F8013C05F1FF35521B0F
:1025300022614B4621464046CDF800A003AAFFF792
:10254000DFFE01304CD14FF0FF3004B0BDE8F08722
:10255000344881F845702968236851F8046B296074
:102560001D0614D5DF0744BF43F0200323601EB9C6
:10257000236823F0200323601023AFE7236843F090
:10258000200323607823284884F84530E3E7590680
:1025900048BFB6B2E6E71546BBE72B682668181DAC
:1025A0006169286035061B6801D5196002E0700674
:1025B000FBD51980002315462361BAE72B6800215B
:1025C0001A1D2A601D686268284602F0EFFA08B1F9
:1025D000401B606063682361002384F84330A8E7F0
:1025E0002A46494640462369D0470130ABD023688C
:1025F0009B0713D4E068039B9842B8BF1846A4E732
:102600000123324649464046D04701309BD0013530
:10261000E36803995B1AAB42F2DCEBE7002504F1B7
:102620001906F5E72A6600083B6600082DE9F04F19
:1026300087B003938B6817465A1EB2F5AE7F85BFED
:102640006FF4AE755B190023029388BF40F25D13EF
:102650008B464FF000058CBF8B6002930B68804661
:1026600043F4F0634BF81C3B0C465E46AA46A94671
:10267000CDE904550195A26852B13B681B784E2BF9
:1026800064D8402B3CD8A3F12B01C8B20E283AD90C
:10269000B9F1000F03D0236823F4807323600AF19B
:1026A000FF3ABAF1010F00F213815E4500F2058195
:1026B0000125284607B0BDE8F08FA3F161020D2A7D
:1026C000E6D801A151F822F0072800089126000859
:1026D0009126000891260008672800083F28000876
:1026E0009126000891260008152800089126000868
:1026F000912600089126000891260008CD270008A1
:10270000A3F14102DBE70E29C2D801A050F821F065
:10271000BF27000891260008BF270008532800089B
:10272000912600086D270008A9270008A92700089E
:10273000A9270008A9270008A9270008A927000839
:10274000A9270008A9270008A92700086E2B09D887
:10275000602BB2D8542B77D0592B99D1072D97D114
:10276000082529E0742B6FD0792BF6E72168C8057E
:102770001AD5029B21F08001216009F101091BB1EA
:10278000013B01320293A260A368013BA36023696D
:10279000013323617B68013B002B7B6040F3848025
:1027A0003B6801333B6066E71AEB050F7FF470AFBF
:1027B000226822F4C072226006F8013BE4E7226836
:1027C00010067FF565AF22F08002F4E7BAF1000F42
:1027D0000ED1B9F1000F0ED1226802F4E061B1F51B
:1027E000E06F08D122F4F0624FF0010A2260E3E7C3
:1027F000BAF1020F55D0012D02D0042D7FF448AF5D
:102800000135EDB2D8E7BAF1010F7FF441AF4FF0D7
:10281000020AD1E77DB9B9F1000F7FF43CAF22681D
:1028200002F4E061B1F5E06F7FF439AF22F4F062B9
:1028300001252260C0E7032DE2D0052DDEE7022D41
:102840007FF426AF0325B7E7062D7FF421AF0725D8
:10285000B2E7226891057FF51BAF22F42072226057
:10286000CDF80490A8E7226802F4A061B1F5806F6A
:1028700006D050057FF50CAFB9F1000F3FF40FAF54
:10288000910558BF019922F4F06258BFA9EB0101EC
:1028900042F4C0724FF0000958BFCDE9041622601F
:1028A0008AE74FF0030A87E739464046D4F880317B
:1028B000984700283FF4DFAEEAE6D4F87C313A4688
:1028C000404616F8011D98472369013B2361ECE659
:1028D0006B1E062B25D8022D36D85E457FF6E8AE56
:1028E000D4F87C313A46404616F8011D98472369D2
:1028F000013B2361F1E70298D4F87C3110F8011D07
:102900003A460290404698472369013B23610AF109
:10291000FF3A5FFA8AFABAF1020FECD1033DEDB249
:10292000761B2368DA052FD55B0510D55E457FF64B
:10293000BFAED4F87C313A46404616F8011D9847A0
:102940002369013B2361F1E7AA460296DFE716F807
:10295000011C2369652903F1FF3306F1FF3523616B
:102960000CD045290AD0D4F87C313A4640469847E5
:10297000236916F8021C013BB51E23613A46404606
:10298000D4F87C3198472E46256815F0100555D1AE
:102990003570236803F4C063B3F5806F1BD1019BCE
:1029A0004B45A3EB090223D100225946404600F0D3
:1029B0007BFE2268039B12F0020F06460F461B683F
:1029C00021D01A1D03990A601B68C3E90067E368F8
:1029D0000133E3606DE6049B002BE5D005990A23E3
:1029E0002A464046013100F0E1FE049B059EC21AD2
:1029F00004F26F139E4228BF04F5B77630461049A3
:102A000000F026F8D0E712F0040F03F10402D9D148
:102A1000DDF80CC0CCF80020D3F8008002460B464D
:102A2000FDF7F4FF28B1074800F00EF8C8F80000E1
:102A3000CDE730463946FEF747F8F7E7002538E698
:102A40004C660008586A0008004870470000C07FC4
:102A50000EB46FF0004100B59CB01DAB0290069023
:102A6000079104910848094953F8042B059100681F
:102A700002A9019302F0BAFE0022029B1A701CB058
:102A80005DF804EB03B070470C0000200802FFFF64
:102A90002DE9F0410F46904602F014FC04460D4625
:102AA000B8F1000F11D0C7F30A53C3F16B03002B29
:102AB0000BDD00241B0503F17F5505F5401522466B
:102AC0002B46FDF709FD04460D4620462946BDE884
:102AD000F0810000000000002DE9F04F9B4600232C
:102AE0009FB01A939E4B82461F680E463846159239
:102AF000FDF72EFB4FF0000804464FF00009199631
:102B0000199B1A782B2A4CD03AD80D2A33D8082A88
:102B100033D8002A3DD000230A93199D2B78302BFF
:102B200040F0AA806B7803F0DF03582B66D10A9B34
:102B3000504601931AAB00938A4ACDF808B01BABFC
:102B400019A901F017FD10F00706044605D0062E5E
:102B500029D10023013519950A93159B002B40F0CC
:102B60008A850A9BD3B1424609F1004310461946B3
:102B70001FB0BDE8F08F202ACDD101331993BFE7F4
:102B80002D2AC8D101220A925A1C19925B78002B77
:102B9000C3D1159B1996002B40F06B8542464B46DE
:102BA000E4E70022EFE71A9A3AB135211CA802F0B7
:102BB0008DFC50461A9902F055F8013E042E06D8B5
:102BC000DFE806F00A0314170A00DDE91C89210773
:102BD000C3D549F00049C0E71B9ADDE91C8302F226
:102BE000334223F4801343EA0259F0E7DFF8789187
:102BF000EDE76FF000494FF0FF38E8E7199B5A1CEA
:102C000019925B78302BF9D0002BA6D001230793C3
:102C1000199B0A22089300239B46CDE90533199896
:102C20000578A5F13003D9B2092927D922463946BA
:102C300002F0F2FE002833D000202A465C4603460C
:102C40000490652A01D0452A14D11CB9079A024381
:102C50009FD00024199E721C199272782B2A79D069
:102C60002D2A00F083800027A2F13001092940F2CB
:102C70008380199600259FE00023C8E7BBF1080F69
:102C8000D5BF0699059902FB013302FB013300F120
:102C90000100D4BF069305930BF1010B1990BEE719
:102CA000199B1A1919921A5DBBF1000F36D05C46B8
:102CB0000490A2F13003092B12D90123C1E7199B1B
:102CC00001305A1C19925A78302AF8D0A2F13103F7
:102CD000082B00F2D584049000200446199B089329
:102CE000303A00F1010313D00499051919440491F5
:102CF00023460A21AB4213D12318082B04F1010407
:102D000004441BDC0A23069903FB012306930023DA
:102D1000199A1846511C19915278CAE75846D3E7B8
:102D2000082B04DC069F4F4306970133E2E75F1C44
:102D3000102FDEBF059F4F430597F6E7102CDFBF2E
:102D40000A23059903FB01230593E0E7002304937D
:102D500001237BE70027B21C1992B27884E700BFF9
:102D6000A0680008546600080000F07F0127F2E721
:102D7000199A511C19915278302AF9D0A2F13101D7
:102D800008293FF677AF4FF00A0EA2F1300C199ADE
:102D90000992199A511C19915278A2F13005092D06
:102DA00035D9099D491B082944F61F6502DC654594
:102DB000A8BF654607B16D42002C4CD1079901436D
:102DC0007FF4CBAE002B7FF4E4AE692A26D023DC5F
:102DD000492A23D04E2A7FF4DCAE9D4919A801F080
:102DE00017FE00283FF4D5AE199B1B78282B2CD159
:102DF00098491CAA19A801F01FFE052825D11D9B82
:102E0000DDF8708043F0FF4949F4E009A5E60EFBC8
:102E10000C2CACF1300CBCE76E2ADCE78E4919A80B
:102E200001F0F6FD00283FF4B4AE199B8B49013B3D
:102E300019A8199301F0ECFD10B9199B01331993EE
:102E40004FF00008DFF8189287E6864802F0CEFDC2
:102E50008046894681E6049BBBF1000F08BFA3466C
:102E6000EB1A102C069826460793A8BF1026FDF7EC
:102E7000B9FA092C8046894613DD7B4B03EBC60368
:102E800053E91223FDF728FB804605988946FDF794
:102E9000A9FA02460B4640464946FDF767F98046C7
:102EA00089460F2C36DC079B002B3FF456AE22DD03
:102EB000162B09DC6C49424601EBC3014B46D1E9B4
:102EC0000001FDF709FBC3E7079AC4F1250393420C
:102ED00020DB654DC4F10F0405EBC4014246D1E986
:102EE00000014B46FDF7F8FA079B1C1B05EBC405D8
:102EF000D5E90023E5E7079B16330BDB049B40462F
:102F00005D1B594B494603EBC505D5E90023FDF789
:102F10000DFC9DE7079BA61B1E44002E74DD16F0DA
:102F20000F030AD05049424601EBC301D1E9000129
:102F30004B46FDF7D1FA8046894636F00F0652D04F
:102F4000B6F59A7F27DD4FF0000BCDF810B0CDF825
:102F500020B0CDF818B022234FF00008DFF8009120
:102F6000CAF80030089B002B3FF4F7AD50461A9981
:102F700001F078FE5046069901F074FE504604991F
:102F800001F070FE5046089901F06CFE594650461B
:102F900001F068FEE1E5354B4046059300234946C4
:102FA0001F463611012E21DC0BB1804689462F4B7E
:102FB000A9F1547903EBC7074246D7E900014B4614
:102FC000FDF78AFA264B0A460B40294980468B4278
:102FD000B9D8A1F580118B4286BF4FF0FF38DFF8DA
:102FE000949002F15479002305937FE0F20705D510
:102FF000059BD3E90023FDF76FFA0123059A0137FA
:10300000083276100592CDE7EDD0764216F00F0229
:103010000AD0154B404603EBC2034946D3E90023CF
:10302000FDF784FB804689463611DCD01F2E23DD58
:103030004FF0000BCDF810B0CDF820B0CDF818B09F
:1030400022234FF000084FF00009CAF8003089E74A
:1030500025660008686600081D660008AC67000861
:103060000000F07F586A00083869000810690008FD
:103070000000A07CFFFFEF7F16F0100318BF6A234B
:103080004046059349460023B04FF20704D5D7E9DF
:103090000023FDF721FA0123761007F10807F4D188
:1030A0000BB180468946059BC3B1C9F30A52C2F1F0
:1030B0006B03002B494611DD1F2B40F32781342B76
:1030C000D8BF4FF0FF334FF00008CFBF4FF05C790F
:1030D000C2F14B0203FA02F202EA010900220023C4
:1030E00040464946FDF760FC0028A1D1069B5A46A0
:1030F000009350462346089901F01CFE08900028D2
:103100003FF421AF049B4FF0000B5D1B079BCDF8F4
:1031100010B0002BB4BF2B4600230E93079B23EA6D
:10312000E3731493089B5046596801F05BFD0690C9
:1031300000283FF410AF089B0C301A6903F10C0112
:103140000232920001F040FD1CAB01931BAB0093D7
:1031500042464B465046CDE90C8902F02DF91A90B3
:1031600000283FF4F8AE0121504601F07BFE0346F3
:10317000049000283FF4EFAE1B9D1C9A002DABBFBE
:103180000E9B149BEE185C1B059BA8BF149CA5EB23
:10319000030515446E4B05F1FF35B8BF0E9E9D42E9
:1031A000C2F1360280F2C4805B1B1F2B4FF0010777
:1031B000A2EB030200F3B180002507FA03F30F939B
:1031C000B718059BBE4214441C443346A8BF3B4677
:1031D000A342A8BF2346002BC2BFFF1AE41AF61A67
:1031E0000E9B002B17DD1A465046049901F0F8FE9D
:1031F000049000283FF4AFAE01461A9A504601F001
:1032000047FE099000283FF4A6AE50461A9901F0F7
:1032100029FD099B1A93002F00F38E80079B002B3A
:1032200008DD5046149A069901F0DAFE069000284F
:103230003FF491AE002C08DD22465046069901F07D
:1032400029FF069000283FF486AE002E08DD3246A6
:103250005046049901F01EFF049000283FF47BAE15
:103260005046069A1A9901F0A1FF834600283FF4C0
:1032700072AE0024C3680499C4600B9301F07AFF16
:10328000A0426BDA0B9B53EA080340F09180C9F32C
:103290001303002B40F08C8029F000431B0D1B050D
:1032A000B3F1D66F40F28480DBF814301BB9DBF841
:1032B0001030012B7CDD59460122504601F0EAFE18
:1032C0000499834601F056FF002871DD05994B46AD
:1032D000204A002900F08C8002EA0901B1F1D66F82
:1032E00000F38680B1F15C7F7FF7AAAE4046494685
:1032F000194B0022FDF7F0F80B46034308BF2223C9
:103300008046894608BFCAF800302FE64FF0FF32EA
:1033100002FA03F303EA0808E0E6C5F17F4505F584
:103320007F0505F57B45E23507FA05F50F9747E779
:10333000012300250F9343E73A4650461A9901F0BE
:10334000A9FE1A9000287FF469AF04E680660008A1
:1033500002FCFFFF0000F07F00005039CDF8249000
:1033600065D10B9AC9F313035AB3994A93422BD1EF
:10337000059B414603B34A46964B1340B3F1D46FC5
:103380004FF0FF321BD81B0DC3F16B0302FA03F39E
:10339000994219D1904B099A9A4202D101313FF4D6
:1033A000DAAD4FF000088B4B099A1A4002F58019EC
:1033B000059B002B9AD1D9E54FF0FF33E8E7134680
:1033C000E6E753EA080381D0E5B1099B1D42EFD03F
:1033D0000B9B40464946059AC3B1FFF759FB02468D
:1033E0000B46DDE90C01FCF7C1FE80468946DFE7AC
:1033F0001340A3F580136FEA13594FF0FF386FEABB
:103400000959D5E70F9B13EA080FE0E7FFF740FBE8
:1034100002460B46DDE90C01FCF7A6FE0022002364
:1034200080468946FDF7C0FA0028C1D008E6584614
:10343000049902F01DF800224FF0804306460F4623
:10344000FDF7C6FA002870D00B9B002B42D0002657
:10345000624F624D099B23F000431B0D1B050F9328
:103460000F9A5F4B9A4240F0C380099B4046A3F1FC
:103470005479494601F026FF02460B46304639464C
:10348000FDF72AF842464B46FCF770FE0B465149C1
:10349000544A1940914280465DD90D9A4E4B9A424A
:1034A00003D10C9B01333FF456AD4FF0FF38DFF8EA
:1034B000289150461A9901F0D5FB5046069901F023
:1034C000D1FB5046049901F0CDFB5946504601F01E
:1034D000C9FB27E6B8F1000F19D1099BC3F3130309
:1034E000E3B90022304639463C4BFDF767FAC8B9CC
:1034F0000022304639463C4BFCF7EEFF04460D46B1
:1035000005F1004316941793DDE91667A2E7B8F1B9
:10351000010F03D1099B002B3FF492AD002600243C
:10352000324F96E70B9C304DEAE72F4B0022304696
:103530003946FCF7D1FF0B9B04460D4633B901F128
:10354000004310901193DDE9106783E702460B46B4
:10355000CDE91023F7E703F15479059B002BA8D19F
:1035600029F000430F9A1B0D1B059A42A1D120465A
:103570002946FDF7F9FAFCF781FF02460B46204683
:103580002946FCF7F1FD0B9AC9F3130343EA08033C
:10359000134304460D4666D009A3D3E90023FDF783
:1035A0000DFA00287FF4E2AC07A3D3E900232046FC
:1035B0002946FDF721FA00283FF47BAFD6E400BF8F
:1035C0009535A094FFFFDF3F35E5AF350000E03FC4
:1035D000FFFF0F000000F07FFFFFEF7F0000F03FD4
:1035E0000000E07FFFFF9F7C0000E03F0000F0BF95
:1035F000059B13B30F9BB3F1D46F1ED826A3D3E959
:10360000002320462946FDF7E3F990B129462046DC
:10361000FDF73AFA012838BF0120FCF7E3FE0B9BC7
:1036200004460D46D3B901F1004312901393DDE92E
:1036300012670F9A07F1D6639F1ADDE90C0101F0BA
:1036400041FE02460B4630463946FCF745FFDDE9B0
:103650000C23FCF78BFD804689467EE702460B462D
:10366000CDE91223E3E70EA3D3E90023FDF7A6F982
:10367000A1E700230A93199B159A1360FFF771BA0B
:10368000652A3FF463AB452A3FF460AB0123FFF7A3
:1036900095BB00BFAFF300800000C0FFFFFFDF411C
:1036A0009535A094FFFFCF3F014BFFF715BA00BF40
:1036B00074000020012B2DE9F047804601D0242B17
:1036C00006D9FEF721FB162303600020BDE8F08732
:1036D0000D46354F284615F8014BE65D16F00806F5
:1036E000F8D12D2C2FD101262C78851C002B57D0FA
:1036F000102B09D1302C07D1287800F0DF00582892
:1037000049D110236C780235002706F1004E0EF1E6
:10371000FF3EBEFBF3F9384603FB19EAA4F1300C77
:10372000BCF1090F14D86446A34222DD002F1DDB33
:1037300081451BD301D1A24518DB012700FB0340C3
:1037400015F8014BEAE72B2C04BF2C78851CCDE73C
:10375000A4F1410CBCF1190F01D8373CE4E7A4F106
:10376000610CBCF1190F04D8573CDDE74FF0FF376F
:10377000E6E7002F07DA22237046C8F80030002A57
:10378000A4D0691E05E006B14042002A9ED0002F59
:10379000F7D111609AE73024002BB5D10823B3E7A5
:1037A000302CA9D00A23AFE7A9660008FFF782BF33
:1037B0002DE9F74F03690C690746A342C0F28280E6
:1037C000013C00F1140501F1140805EB8403019399
:1037D00058F8243055F8242001339A42B2FBF3F60E
:1037E0004FEA840B08EB840931D34FF0000E4046BA
:1037F000AC46F24650F8042B93B206FB03E3120CDE
:103800004FEA134E9BB206FB02E2AAEB0303DCF87D
:1038100000A04FEA124E1FFA8AFA5344DCF800A0C7
:1038200092B2C2EB1A4202EB23429BB243EA02433A
:1038300081454FEA224A4CF8043BDBD255F80B3065
:103840002BB9019B043B9D421A462FD33C6138465D
:1038500001F090FC002825DB28464FF0000C0136D3
:1038600058F8041BD0F800E08BB2ACEB03031FFA4E
:103870008EF213440A0CC2EB1E4202EB23429BB2AF
:1038800043EA0243C1454FEA224C40F8043BE7D2E9
:1038900055F8242005EB840322B9043B9D421A46C7
:1038A0000AD33C61304603B0BDE8F08F1268043B98
:1038B000002ACBD1013CC6E71268043B002AF0D1B4
:1038C000013CEBE70020EEE72DE9F04F16461F46DE
:1038D000446A99B00546CDE90467DDF8948074B96F
:1038E000102001F049F90246686220B9EA21A84B8C
:1038F000A84802F0B3F8C0E901440460C4606B6AF0
:10390000196851B15A68012393404A608B60284678
:1039100001F0A8F900226B6A1A603B1EAFBF0023BA
:10392000012223F000430593A8BFC8F80030DDF85A
:103930001490994BB8BFC8F8002033EA090319D195
:1039400042F20F73249A1360C9F31303334300F058
:103950007F85269B53B9914B22E0914B039308330B
:10396000269A1360039819B0BDE8F08F8B4B039330
:103970000333F5E7DDE90434CDE90C34DDE90C016E
:1039800000220023FDF710F8804658B10123249A45
:103990001360269B002B00F0588582481860431E58
:1039A0000393DFE716AB019317AB00932846DDE9DD
:1039B0000C2301F001FDC9F30A548346002C7FD08B
:1039C000DDE90C010D9BA4F2FF34C3F3130343F0B4
:1039D0007F5141F44011CDF84C800022724BFCF72E
:1039E000C3FB65A3D3E90023FCF776FD64A3D3E909
:1039F0000023FCF7BBFB064620460F46FCF702FD02
:103A000061A3D3E90023FCF767FD02460B4630466D
:103A10003946FCF7ABFB06460F46FDF70DF80022D2
:103A20008246002330463946FCF7C8FF48B150466D
:103A3000FCF7E8FC32463B46FCF7B6FF08B90AF152
:103A4000FF3ABAF1160F58D8DDE90C01574B03EBDA
:103A5000CA03D3E90023FCF7B1FF00284FD00023AD
:103A60000AF1FF3A0F93169B1C1B631E099349BF73
:103A7000C4F1010300230693002354BF0693099366
:103A8000BAF1000F3DDB099BCDF838A053440993F0
:103A900000230A93229B092B00F28C80052BC4BFC4
:103AA000043B2293229BC8BF0024A3F10203D8BF8A
:103AB0000124032B00F28A80DFE803F02D4F4D5BD9
:103AC000DDE916431C4404F23243202BC3BFC3F18B
:103AD000400304F2124009FA03F3C3F12003C6BF06
:103AE00026FA00F0184306FA03F0FCF77BFC0123EA
:103AF000A1F1F871013C13936FE70123B2E70F9036
:103B0000B1E7069BA3EB0A030693CAF100030A93ED
:103B100000230E93BEE700230B93239B002B58DC5E
:103B20004FF001094B46CDF82090CDF88C90002243
:103B3000686A4260042202F114069E4241684ED92E
:103B4000284601F04FF8039000284CD102464FF46C
:103B5000D571174BCCE60123DEE700230B93239BA3
:103B60000AEB030909F10103012B0893B8BF0123F4
:103B7000DDE70123F2E700BF61436F63A787D23F10
:103B8000B3C8608B288AC63FFB799F501344D33F4C
:103B9000B6670008CD6700080000F07FB267000834
:103BA000A9670008296600080000F83F3869000886
:103BB00028680008012400230B9422934FF0FF395A
:103BC00000221223CDF820902392B0E701230B931B
:103BD000F4E7DDF88C904B46CDF82090A7E7013153
:103BE00041605200A7E76B6A039A1A60089B0E2B8C
:103BF00000F2A880002C00F0A580BAF1000F34DD9F
:103C00009A4A0AF00F0302EBC3031AF4807FD3E948
:103C10000034CDE910344FEA2A1416D0DDE90C0146
:103C2000934B0327D3E90823FCF780FDCDE904017A
:103C300004F00F048E4E54B9DDE91023DDE90401D0
:103C4000FCF774FDCDE9040129E00227F2E7E10762
:103C500008D5DDE91001D6E90023FCF73DFCCDE9EC
:103C60001001013764100836E5E700F0A580DDE9B2
:103C70000C01CAF100047D4B04F00F0203EBC203F8
:103C8000D3E90023FCF728FC02270023CDE9040137
:103C9000774E2411002C40F08480002BD2D10F9B52
:103CA000002B00F08B80DDE90434CDE91034DDE930
:103CB000100100226F4BFCF781FE00287ED0089B8C
:103CC000002B7BD0B9F1000F38DDDDE910010022B7
:103CD000694BFCF701FC4C46CDE904010AF1FF38C1
:103CE00001373846FCF78EFBDDE90423FCF7F4FBD3
:103CF0000022624BFCF73AFAA1F15076CDE91001AF
:103D00001196002C5DD1DDE9040100225C4BFCF72B
:103D10002BFA02460B46CDE904233346109AFCF7F2
:103D20006BFE002840F09C82DDE90401109A06F148
:103D30000043FCF743FE002840F09082DDE90C349C
:103D4000CDE90434179B002BC0F25281BAF10E0F5B
:103D500000F34E81454B03EBCA03D3E90034CDE9B0
:103D60000634239B002B80F2DB80089B002B00F3A2
:103D7000D78040F07282DDE906010022404BFCF75B
:103D8000ABFBDDE90423FCF72DFE089C264600284A
:103D900040F048823123039F0AF1010A07F8013BF2
:103DA00044E2E20705D5D6E90023FCF795FB0123A1
:103DB0000137641008366DE7022770E7D046089C8B
:103DC0008FE70399294B214412910B9903EBC4030C
:103DD000DDE9106753E90223002955D00020294965
:103DE000FCF7A4FC3B463246FCF7BEF9CDE91001D6
:103DF000039FDDE90401FCF71FFE0446FCF702FB0C
:103E000002460B46DDE90401FCF7AEF902460B461B
:103E10003034CDE90423DDE9102307F8014BFCF72A
:103E2000CDFD002874D1DDE9042300201149FCF701
:103E30009BF9DDE91023FCF7C1FD002840F0B780B5
:103E4000129B9F423FF47AAFDDE9100100220A4B3A
:103E5000FCF742FB0022CDE91001DDE90401064B2D
:103E6000FCF73AFBCDE90401C3E700BF386900085D
:103E7000106900080000F03F0000244000001C40D2
:103E8000000014400000E03F30463946FCF724FBB8
:103E9000129BCDE91001039C1493DDE90401FCF7AA
:103EA000CBFD1590FCF7AEFA02460B46DDE90401A6
:103EB000FCF75AF9159B0646303304F8013B129B78
:103EC0000F469C424FF0000224D1DDE91001B04BB7
:103ED000FCF74CF902460B4630463946FCF78CFDA0
:103EE000002863D1DDE910230020A949FCF73CF943
:103EF00002460B4630463946FCF760FD00283FF489
:103F00001DAF149F7B1E149317F8013C302BF8D083
:103F1000C2463BE09F4BFCF7DFFACDE90401BCE76A
:103F2000039FDDE90489DDE9062340464946FCF7A5
:103F3000FDFBFCF781FD0446FCF764FADDE906238E
:103F4000FCF7CAFA02460B4640464946FCF70CF914
:103F500004F1300607F8016B039EDDF820C0BE1B9C
:103F6000B44502460B4636D1FCF700F9DDE90623DD
:103F700080468946FCF740FD58BBDDE906234046F4
:103F80004946FCF711FD08B1E10722D428465946FD
:103F900000F068FE00233B70249B0AF101001860CA
:103FA000269B002B3FF4DEAC1F60DBE427463B463C
:103FB0001F4613F8012D392A07D1039A9A42F7D1E7
:103FC0003022039908F101080A701A7801321A7038
:103FD0009EE7D046EBE700226E4BFCF77DFA00220D
:103FE000002380468946FCF7DFFC00289BD0CDE704
:103FF0000B9A002A00F0D080229A012A00F3AE80AA
:10400000139A002A00F0A68003F233430A9C069F0D
:10401000069A01211A440692099A28461A440992DE
:1040200000F020FF0646002F0CDD099B002B09DD68
:10403000BB42A8BF3B46069AFF1AD21A0692099ABB
:10404000D31A09930A9BF3B10B9B002B00F0A880B5
:10405000002C10DD31462246284600F0C1FF5A46AA
:1040600001460646284600F013FF8046594628467A
:1040700000F0F8FDC3460A9B1A1B04D05946284697
:1040800000F0AEFF83460121284600F0EBFE0E9BB8
:104090000446002B40F386801A460146284600F06D
:1040A0009FFF229B0446012B7FDD4FF00008236910
:1040B00004EB8303186900F087FEC0F12000099B20
:1040C000184410F01F0000F09280C0F12003042B70
:1040D00040F38A80C0F11C00069B0744034406930A
:1040E000099B03440993069B002B05DD59461A469C
:1040F000284600F0CFFF8346099B002B05DD2146B3
:104100001A46284600F0C6FF04460F9B002B70D0CD
:104110002146584601F02EF800286ADA0023594655
:104120000A22284600F0C0FD0B9B83460AF1FF3AA5
:10413000002B00F09481314600230A22284600F02B
:10414000B3FDB9F1000F064600F39380229B022BCA
:1041500057DC8EE0169BC3F1360357E7089B5C1EC5
:104160000A9BA342B7BF0A9B1C1BE21A0E9BBEBF51
:104170000A949B180E93089BB8BF0024002BBBBF6A
:10418000069B089A069F9F1AACBF089B00233FE737
:104190000000E03F000024400A9C069F0B9E42E77F
:1041A0000A9A6BE7229B012B19DC049BBBB9059B88
:1041B000C3F313039BB9059B23F000431B0D1B05A1
:1041C00083B14FF00108069B01330693099B01332D
:1041D00009930E9B002B7FF46AAF01206FE74FF02D
:1041E0000008F6E79846F4E73FF47DAF18461C3028
:1041F00072E7089B002B36DC229B022B33DDDDF8B7
:104200002090B9F1000F0DD121464B4605222846DA
:1042100000F04AFD01460446584600F0ABFF002876
:104220003FF7B8AD239B039F6FEA030A4FF00008E6
:104230002146284600F016FD002E3FF4A7AEB8F147
:10424000000F05D0B04503D04146284600F00AFDD6
:104250003146284600F006FD98E600242646E1E7B0
:10426000C246264696E50B9BDDF82090002B00F019
:10427000FD80002F05DD31463A46284600F00AFF52
:104280000646B8F1000F5CD02846716800F0AAFC21
:10429000074628B9024640F2EA217F4BFFF728BBC8
:1042A000326906F10C01023292000C3000F08CFCF5
:1042B00001223946284600F0EDFEB0460646039B33
:1042C00001330893039B4B440A93049B03F00103BF
:1042D0000993089B2146013B58460493FFF768FA6F
:1042E000034641463033069058460B9300F042FF98
:1042F000324681462146284600F058FFC2680746EC
:104300000B9B02BB0146584600F034FF02460B9B54
:1043100039462846CDE90B3200F0A4FC229B0C9ACA
:10432000089F43EA0201099B0B430B9B0DD1392BDC
:1043300029D0B9F1000F01DD069B3133049A1370C7
:1043400076E73046B9E70122E2E7B9F1000F06DB74
:10435000229941EA0909099959EA010120D1002A63
:10436000ECDD594601222846089300F093FE2146D1
:10437000834600F0FFFE0028089B02DCDED1DA074E
:10438000DCD5392BD8D13923049A13703B461F460C
:1043900017F8012C013B392A50D001321A7047E737
:1043A000002A03DD392BEED00133C7E7089A0A99BA
:1043B00002F8013C8A422AD0594600230A222846A4
:1043C00000F072FCB04583464FF000034FF00A0244
:1043D0004146284607D100F067FC80460646089B08
:1043E0000133089375E700F05FFC314680460023F7
:1043F0000A22284600F058FC0646F0E7B9F1000F03
:10440000CCBF4F4601274FF00008039A1744594686
:1044100001222846089300F03DFE2146834600F025
:10442000A9FE0028B2DC02D1089BDB07AED43B46D4
:104430001F4613F8012D302AFAD0F9E6039A9A4262
:10444000A5D131230AF1010A79E7144BFFF7A8BA85
:10445000269B002B7FF481AA114BFFF7A1BAB9F17B
:10446000000F03DC229B022B3FF7CBAE039F2146BC
:104470005846FFF79DF9039A00F1300307F8013B16
:10448000BA1A9145BADD594600230A22284600F09F
:104490000BFC8346EBE700BF28680008286600088D
:1044A000A967000803692DE9F043B3EB611F00F130
:1044B00014044FEA611246DD11F01F0104EB83067C
:1044C00004EB82050CD1294600F11007B14235D327
:1044D0009B1A9B00EA1E964238BF0023234415E036
:1044E000A14654F82270C1F12008CF4005F1040E16
:1044F0007645F44616D89A1A9200043A0135AE422F
:1045000038BF0022A318A75007B10433A342A3EB7E
:10451000040208BF00234FEAA202026108BF436100
:10452000BDE8F083DCF800C00CFA08FC4CEA070791
:1045300049F8047B5EF8047BCF40D9E751F804CBFF
:1045400047F804CFC2E72346E0E7A0F13003092B88
:1045500002D82038C0B27047A0F16103052B01D802
:104560004738F7E7A0F14103052B01D82738F1E7D9
:10457000002070472DE9F04F8BB00593B24B0290AD
:104580001B688B46184690460393FBF7E1FD824675
:10459000039BDBF80020034413F8013C0693931CB3
:1045A000C2F1FF2202F57F02FE32D1181F4613F836
:1045B000010B01913028F8D0FFF7C7FF044600280F
:1045C0003AD152463846039901F026FA05460028AA
:1045D00066D117F80A0007EB0A06FFF7B6FF0028B6
:1045E00060D0334618781F46302803F10103F9D014
:1045F000FFF7ABFF0123B0FA80F43546640901935D
:104600003A46164630780132FFF79FFF0028F8D16E
:1046100052463046039901F0FFF980B94DB906EBD7
:104620000A052A46164630780132FFF78EFF002829
:10463000F8D1AD1BAD0004E000242546E0E7002DD5
:10464000F7D1337803F0DF03502B39D173782B2B5C
:104650002AD02D2B2CD04FF00009711C0878FFF7C1
:1046600074FF431EDBB2182B2AD8A0F1100211F8F8
:10467000010FFFF76AFF431EDBB2182B1BD9B9F1FC
:10468000000F00D052421544CBF80010D4B1019B6A
:10469000002B14BF0027062738460BB0BDE8F08F6B
:1046A0003E4625460124CCE74FF00009B11CD5E772
:1046B0004FF00109FAE70A2303FB0202103AD6E79A
:1046C0003146E1E72146F31B013B072B0ADC029848
:1046D00000F088FA044640B90246DE215B4B5C4894
:1046E00001F0BCF901315B10EFE74FF0000B00F176
:1046F0001409CAF10103CDF81090CDF804B0089365
:10470000B7423FD3049F019B47F8043BA7EB09073F
:10471000BF102761184600F057FB7F01D8F80060F2
:104720003F1AB74262DDBF1B3946204600F0F1FE5A
:104730008246A8B14FF0010A7B1E591159F8211089
:1047400003F01F020AFA02F20A4209D0534505DDBE
:104750002046B91E00F0DDFE002844D14FF0020AC9
:1047600039462046FFF79EFE3D44D8F80830AB425C
:104770004ADA2146029800F075FA0023149AA3271A
:10478000136089E7731E069A079316F8013C93425B
:1047900019D0BBF1200F07D1049B019A43F8042BD9
:1047A000049300239B46019316F8010CFFF7CDFEFE
:1047B000019B00F00F0000FA0BF0034301930BF193
:1047C000040B079B0DE0089A731E1344BB42E0D311
:1047D000184652460399099301F01EF9099B0028D7
:1047E000D7D11E468CE74FF0030AB9E709DAF71B69
:1047F00021463A46029800F04DFC0446ED1B00F1BC
:1048000014094FF0000AB0E7D8F80400A84272DD9E
:10481000451BAE4235DCD8F80C30022B29D0032BD7
:104820002BD0012B1CD1AE421AD1012E12D1D8F8B7
:104830000430059A6227136001232361C9F8003010
:10484000149B1C6028E700BFA068000828680008C7
:10485000396800082046711E00F05BFE0028E6D192
:104860002146029800F0FEF90023149A50271360A5
:1048700012E7159B002BF3D1D9E7159B002BD6D15E
:10488000EEE76F1EBAF1000F32D127B1394620464C
:1048900000F03FFE824601217B1159F8233007F0DA
:1048A0001F0701FA07F71F424FF00207294620466B
:1048B00018BF4AF0020A761BFFF7F4FDD8F804503F
:1048C000BAF1000F48D0D8F80C30022B15D0032BCA
:1048D00017D0012B09D11AF0020F06D0D9F8000029
:1048E0004AEA000A1AF0010F0ED147F0100733E030
:1048F0004FF0010ACFE70127E2E7159BC3F101035F
:104900001593159B002BF0D04FF0000CD4F810B08D
:1049100004F114034FEA8B0A03EB8B01184653F89A
:10492000042BB2F1FF3F1CD001320260022F04F1D0
:1049300014033DD1D8F80020013AB2420AD1012235
:10494000711153F8213006F01F0602FA06F61E42D6
:1049500018BF174647F02007149B1C60059B1D607D
:104960009AE6994243F804CCD8D8A3689B4517DB54
:1049700061680298013100F035F9814618B90246A4
:104980008421194BABE6226904F10C01023292003A
:104990000C3000F019F92146029800F063F94C46FA
:1049A00023695A1C2261012204EB83035A61BDE78B
:1049B00022695A450BDD01212046FFF773FDD8F827
:1049C00008300135AB42FFF6D4AE0127C2E716F03E
:1049D0001F06FAD0534453F8040C00F0F5F9C6F161
:1049E0002006B042E7DBF0E728680008C2F10802C1
:1049F000920070B5C2F120064368046803FA06F518
:104A00002C43D340046040F8043F8842F4D370BD87
:104A100030B50368013311F8014B14B9036001206C
:104A200030BD13F8012BA2F14105192D98BF20329A
:104A3000A242F0D00020F3E72DE9F04F00250B68EB
:104A400082465E1102EB860613F01F0318BF043680
:104A5000371FB9463C46AB4687B090460268019383
:104A600046F8045C02955178531C039341B3084601
:104A700005920491FFF769FD00284FD10499059A2A
:104A8000202918D8029B9B4513DD4C4506D2072DE3
:104A900004DC2A4649462046FFF7A8FF444550D982
:104AA0000023A4F1040944F8043C1D464C46CDF80B
:104AB00008B0039AD7E7292956D10232CAF8002054
:104AC000BBF1000F50D04C4506D2072D04DC2A461E
:104AD00049462046FFF78AFF444534D92346A8F1CA
:104AE000040253F8041B9F4242F8041FF9D23B1BF7
:104AF00023F0030304330134033EB44288BF04238C
:104B00000022434443F8042B9F42FBD23B681BB96D
:104B1000474527D101233B60052026E00135082DBC
:104B20000BF1010B06DD4445C3D90023012544F8F0
:104B3000043C043C226800F00F0040EA02122260AC
:104B4000B7E70825B5E7019B002BDFD04FF0FF3218
:104B5000C3F1200322FA03F356F8042C1A4046F856
:104B6000042CD3E7043FD1E7042007B0BDE8F08F61
:104B70000048704764010020024B0146186800F0AD
:104B800065BD00BF0C00002082B001B901A942B18F
:104B90004BB113780B601278101E18BF012002B0C1
:104BA00070471046FBE76FF00100F8E7034610B5C9
:104BB000C9B202449342184601D1002003E00478B0
:104BC00001338C42F6D110BD0A44914200F1FF330B
:104BD00000D1704710B511F8014B914203F8014F15
:104BE000F9D110BD70B5466A04460D4676B910205D
:104BF000FFF7C2FF0246606220B96621174B1848D2
:104C000000F02CFFC0E901660660C660666AF368C2
:104C100083B1636ADB6853F82500B8B9012101FA52
:104C200005F6721D2046920000F094FC60B1C0E9C8
:104C300001560EE021220421204600F08BFC636A1D
:104C4000F060DB68002BE4D1002070BD026843F8FF
:104C500025200023C0E90333F7E700BFB66700084B
:104C6000B468000870B5466A05460C4676B910204F
:104C7000FFF782FF0246686220B98A21084B094883
:104C800000F0ECFEC0E901660660C6603CB16B6AEC
:104C90006268DB6853F82210216043F8224070BD3F
:104CA000B6670008B46800082DE9F04107460C46D5
:104CB0001E4600200D6901F1140CDCF800300130B3
:104CC00099B202FB01611E0C0B0C02FB063389B288
:104CD00001EB034185424FEA13464CF8041BECDC20
:104CE0000EB3A368AB4219DC616838460131FFF7A7
:104CF00079FF804628B90246B5210C4B0C4800F0DC
:104D0000ADFE226904F10C01023292000C30FFF773
:104D10005BFF21463846FFF7A5FF444604EB8503B9
:104D200001355E6125612046BDE8F08128680008F4
:104D3000B46800082DE9F843154609221F460833D8
:104D40000C4693FBF2F30646012200219A4209DB4E
:104D50003046FFF747FF40B90246CE21184B1948AD
:104D600000F07CFE52000131F0E7089B092D436101
:104D70004FF00103036116DD04F10909C8462C4414
:104D800018F8013B01460A223046303BFFF78CFF02
:104D9000A045F5D1A5F108044C442D1B6319BB4275
:104DA00004DBBDE8F88309250A34F6E714F8013B73
:104DB00001460A223046303BFFF776FFEEE700BFA0
:104DC00028680008B4680008020C12040346CAB937
:104DD0000304102013F07F4F04BF1B02083013F0B0
:104DE000704F04BF1B01043013F0404F04BF9B0001
:104DF0000230002B05DB13F0804F00F1010008BFEB
:104E0000202070470020E5E70368024613F0070002
:104E10000BD0D90721D4980749BF5B089B08012014
:104E200013605CBF02201360704799B209B910206B
:104E30001B0CD9B209B908301B0A190704BF1B099A
:104E40000430990704BF9B080230D90703D45B08DC
:104E500000F1010003D0136070470020704720204C
:104E60007047000010B50C460121FFF7BBFE02465B
:104E700028B94FF4A071044B044800F0EFFD012362
:104E80004461036110BD00BF28680008B4680008D1
:104E90002DE9F04F91460A69D9F810300C469A4234
:104EA000BEBF0B464C4699462769D9F810A0A368A7
:104EB000616807EB0A06B34285B0B8BF0131FFF75E
:104EC00091FE30B9024640F25D11434B434800F079
:104ED000C5FD00F114052B46002205EB860843456D
:104EE00021D304F1140303EB870709F1140303EB47
:104EF0008A0202923A1B153A22F00302043204F1AC
:104F000015018F4238BF04220192029A03939A42FC
:104F10000CD8002E03DD58F8043D002B59D0066153
:104F200005B0BDE8F08F43F8042BD8E7B3F800A034
:104F3000BAF1000F23D0A9464FF0000C04F1140E73
:104F40005EF8042BD9F800101FFA82FB89B20AFB25
:104F50000B116144D9F800C0120C4FEA1C4C0AFB3B
:104F600002C202EB114289B241EA024177454FEA9F
:104F7000124C49F8041BE3D8019A45F802C0039A81
:104F80000433B2F80290B9F1000F20D0AE464FF0D2
:104F9000000A296804F1140CBCF800B0BEF8022025
:104FA00089B209FB0B22924441EA0A414EF8041BE4
:104FB0005CF8042BBEF80010120C09FB02116745C7
:104FC00001EB1A414FEA114AE6D8019AA95004357B
:104FD0009BE7013E9DE700BF28680008B468000811
:104FE0002DE9F843154612F0030206460F4607D096
:104FF000254C013A002354F82220FFF755FE0746BE
:10500000AD103DD0746A7CB91020FFF7B5FD0246A3
:10501000706228B94FF4D7711C4B1D4800F01EFD7B
:10502000C0E901440460C460D6F82480D8F8084080
:105030004CB940F271213046FFF714FF00230446BB
:10504000C8F8080003604FF00009EB070AD539469D
:1050500022463046FFF71CFF804639463046FFF7B0
:1050600001FE47466D100BD0206838B92246214614
:105070003046FFF70DFF2060C0F800900446E4E7DB
:105080003846BDE8F88300BF006A0008B66700082C
:10509000B46800082DE9F0470C460746914623699D
:1050A000496803EB6218A3684FEA621A08F1010627
:1050B000B3420BDB3846FFF795FD054648B902467B
:1050C00040F2D911294B2A4800F0C8FC01315B009D
:1050D000EEE7002300F1140100F1100218465345D9
:1050E00037DB20692AEAEA7A04F1140319F01F0970
:1050F00001EB8A0103EB80002FD08A464FF0000CB1
:10510000C9F1200E1A6802FA09F242EA0C024AF8C2
:10511000042B53F8042B984222FA0EFCF2D8031BFE
:10512000153B23F00303043304F11502904238BF0A
:10513000042341F803C0BCF1000F01D008F10206BE
:10514000013E384621462E61FFF78CFD2846BDE81A
:10515000F08742F8040F0133C1E7043953F8042BF8
:10516000984241F8042FF9D8EAE700BF2868000800
:10517000B468000803460A69006930B5801A0DD189
:105180001433143103EB820401EB820154F8045D03
:1051900051F8042D954202D004D3012030BDA34222
:1051A000F4D3FBE74FF0FF30F8E700002DE9F84FAC
:1051B0000D460746114628461446FFF7DBFF061E3C
:1051C00011D131463846FFF70DFD024628B940F2AD
:1051D00032213A4B3A4800F041FC0123C0E9043641
:1051E0001046BDE8F88FA4BF23462C4638466168B8
:1051F000A6BF1D4600260126FFF7F4FC024618B99B
:105200004FF410712D4BE5E702F11408C2464FF040
:10521000000C2769C6602E6904F1140005F1140919
:1052200000EB870E09EB8606103454F804BF59F8DA
:10523000043B1FFA8BF18C4499B21B0CACEB0101BF
:10524000C3EB1B4303EB214389B24FEA234C4E458A
:1052500041EA03434AF8043BE7D8731B153B23F0AC
:10526000030315350433AE4238BF042318444344C6
:105270001E46054675450ED30EF10301091A21F0AD
:1052800003010338864538BF0021194451F8043D15
:105290008BB11761A4E755F8048B1FFA88F16144BC
:1052A0000C1404EB184489B241EA04414FEA244C3F
:1052B00046F8041BDEE7013FE8E700BF2868000866
:1052C000B4680008114B0B40A3F15073002B02DDB2
:1052D0000020194670475B42B3F1A07F4FF00000F9
:1052E0004FF000014FEA235204DA4FF4002343FA4F
:1052F00002F17047A2F114031E2BD6BF4FF00042FB
:10530000012322FA03F31846704700BF0000F07F24
:105310002DE9F843076900F1140909EB870757F8ED
:10532000046CA7F104083046FFF74EFDC0F12003DE
:105330000A280B601F4917DCC14528BF0022C0F1B5
:105340000B0C26FA0CF338BF57F8082C43EA01057A
:1053500000F1150306FA03F322FA0CF243EA020401
:1053600020462946BDE8F883C1452EBF002257F8E4
:10537000082CA7F10808B0F10B0316D0C3F12007E1
:1053800022FA07F1C84506FA03F646EA010694BF79
:10539000002158F8041C46F07F5502FA03F0F9404A
:1053A00045F4401540EA0104DAE7144646EA0105EF
:1053B000D6E700BF0000F03F2DE9F3410121DDE910
:1053C000087690461D46FFF70DFC044630B90246AC
:1053D00040F20A31244B254800F040FBC5F313038B
:1053E000C5F30A552DBB0193B8F1000326D06846DA
:1053F0000093FFF709FD0099F0B1019AC0F1200375
:1054000002FA03F30B43C24063610192019B002B3C
:1054100014BF02210121A3612161C5B1A5F2334569
:105420000544C0F135003D603060204602B0BDE863
:10543000F08143F48013D6E76161E7E701A8FFF745
:10544000E3FC0121019B216163612030E5E704EB6E
:105450008103A0F2324038601869FFF7B5FCC0EB59
:1054600041113160E1E700BF28680008B468000816
:105470002DE9F74F884669468146FFF749FF0F46F9
:1054800004460D46404601A9FFF742FFD9F8103007
:10549000D8F810208B46A3EB020CDDE900329B1AF2
:1054A00003EB4C13002BD5BF0A462A46C3EB03334C
:1054B00002EB0357D8BF02EB035B5B46024639465B
:1054C0002046FBF733F903B0BDE8F08F013970B522
:1054D00049111469013102F1140300EB810103EB5E
:1054E0008404051FA3420CD3A31A113B23F003032A
:1054F0001132A24288BF002318440023884205D3FA
:1055000070BD53F8046B45F8046FEBE740F8043BBB
:10551000F4E700F1140200694B11984210B511DB59
:105520000ADD11F01F0107D052F8234024FA01F0E0
:1055300000FA01F18C420BD102EB8303934203D8B2
:10554000002010BD0346F7E753F8041D0029F5D0ED
:105550000120F6E770B5A1FB025434B9294600F0EA
:1055600075F8064628B9304670BD0C220026026048
:10557000F9E72A462146FCF7F1FBF4E738B5054682
:10558000002940D051F8043C0C1F002BB8BFE41890
:1055900000F0AEFA1C4A136833B963601460284601
:1055A000BDE8384000F0AABAA34208D92068211803
:1055B0008B4201BF19685B6809182160EDE71A4644
:1055C0005B680BB1A342FAD911685018A0420BD105
:1055D00020680144501883421160E0D118685B686C
:1055E000014411605360DAE702D90C232B60D6E73F
:1055F000206821188B4201BF19685B680918216077
:1056000063605460CBE738BD0402002070B50E4ED5
:105610000C463168054611B900F0EEF930602146BC
:10562000284600F0E9F9431C0AD0C41C24F0030406
:10563000A04207D0211A284600F0DEF9013001D13E
:105640004FF0FF34204670BD080200202DE9F041E4
:10565000CD1C25F0030508350C2D38BF0C25002D79
:10566000074601DBA94205D90C2300263B603046E2
:10567000BDE8F0812E4E00F03BFA33681C4634BB87
:1056800029463846FFF7C2FF431C04464DD1346813
:105690002646002E40D123683146384604EB0308E5
:1056A00000F0AAF980453AD1216803356D1A25F03A
:1056B000030508350C2D38BF0C2538462946FFF761
:1056C000A5FF01302BD023682B4423600EE0226815
:1056D000521B1ED40B2A16D96119A342256018BF8C
:1056E0005960636808BF316062514B60384604F10D
:1056F0000B0600F003FA26F00706231DF21AB6D0B7
:105700009B1BA350B3E76268A3420CBF32605A6090
:10571000ECE723466468B2E734467668B9E70C23C1
:1057200038463B6000F0EAF9A1E72560DEE700BFFC
:10573000040200202DE9F0478E6882469E420C4606
:1057400090461F4638D88A8912F4906F32D0256867
:1057500009690133A5EB010965694B4405EB450572
:1057600005EBD5756D109D4238BF1D46530531D5EB
:105770002946FFF76BFF064650B90C234FF0FF3068
:10578000CAF80030A38943F04003A381BDE8F08745
:105790004A462169FFF718FAA38923F4906343F07E
:1057A0008003A38126614E4426603E466561A5EBD9
:1057B0000905A560BE4200D93E46324641462068F2
:1057C00000F07CF9A36800209B1BA360236833448E
:1057D0002360DBE72A4600F097F906460028E1D16E
:1057E00050462169FFF7CAFEC7E700002DE9F04FD8
:1057F00098468B8907461B060D4614469DB00ED56C
:105800000B6963B94021FFF721FF2860286120B9A7
:105810000C233B604FF0FF30D1E040236B6100234D
:10582000099320238DF8293030234FF00109CDF85A
:105830000C80DFF8A4818DF82A3023469A4613F8AD
:10584000012B0AB1252AF9D1BAEB040B0BD05B4628
:10585000224629463846FFF76DFF013000F0AA8046
:10586000099A5A4409929AF80030002B00F0A2805D
:1058700000234FF0FF32CDE905230AF1010A04931A
:1058800007938DF853301A935446052214F8011BE0
:105890005148FFF78BF9049AD8B9D00644BF2023AA
:1058A0008DF85330110744BF2B238DF853309AF8ED
:1058B00000302A2B15D0544600204FF00A0C079ACE
:1058C000214611F8013B303B092B4ED9B0B107926C
:1058D00014E0A0EB080309FA03F31343A246049370
:1058E000D2E7039B191D1B680391002BBBBF5B42D2
:1058F00042F0020207930793B8BF049223782E2B3D
:105900000CD163782A2B35D1039B02341A1D1B68F6
:105910000392002BB8BF4FF0FF330593DFF8BCA014
:10592000032250462178FFF741F940B14023A0EB14
:105930000A0003FA00F0049B01340343049314F8B3
:10594000011B062226488DF82810FFF72FF90028A2
:1059500038D0244B1BBB039B073323F007030833CA
:105960000393099B3344099367E70C4601200CFB22
:105970000232A5E700234FF00A0C194601340593C3
:10598000204610F8012B303A092A03D9002BC5D044
:105990000591C3E7044601230CFB0121F0E703ABAB
:1059A00000932A463846104B04A9FCF77DFA421CA6
:1059B0000646D6D1AB895B063FF52CAF09981DB0E2
:1059C000BDE8F08F03AB00932A463846064B04A986
:1059D000FCF706FDEBE700BF0C6A0008126A00083E
:1059E000166A0008A91E0008355700080020014962
:1059F000704700BF0000F87F38B50023054D04460E
:105A000008462B60FBF7BEFB431C02D12B6803B199
:105A1000236038BD0C020020034610B572B1013975
:105A2000841813F8010B11F8012F904201D1A34201
:105A300001D1801A10BD0028F3D1FAE71046F9E72A
:105A40000346084641B1FF2A04D98A224FF0FF30AD
:105A50001A60704701200A70704700001FB5144695
:105A60001A46094B05461B68D8684CB1074BCDE96F
:105A7000013400912B46064900F00EF800F08AFA36
:105A8000044B1C46F3E700BF0C0000201D6A000811
:105A90002A6A0008586A00080EB403B5014603AB31
:105AA000054853F8042B0068019300F083F802B016
:105AB0005DF804EB03B070470C000020884210B57D
:105AC00001EB020402D98442234607D8431EA142B7
:105AD00008D011F8012B03F8012FF8E70146024422
